{
  "_format": "hh-sol-artifact-1",
  "contractName": "RecipeRegistry",
  "sourceName": "contracts/RecipeRegistry.sol",
  "abi": [
    {
      "anonymous": false,
      "inputs": [
        {
          "indexed": true,
          "internalType": "bytes32",
          "name": "dataHash",
          "type": "bytes32"
        },
        {
          "indexed": true,
          "internalType": "uint256",
          "name": "localIndex",
          "type": "uint256"
        },
        {
          "indexed": false,
          "internalType": "string",
          "name": "title",
          "type": "string"
        },
        {
          "indexed": false,
          "internalType": "string",
          "name": "creator",
          "type": "string"
        },
        {
          "indexed": true,
          "internalType": "address",
          "name": "submitter",
          "type": "address"
        }
      ],
      "name": "RecipeAnchored",
      "type": "event"
    },
    {
      "inputs": [
        {
          "internalType": "uint256",
          "name": "localIndex",
          "type": "uint256"
        },
        {
          "internalType": "string",
          "name": "title",
          "type": "string"
        },
        {
          "internalType": "string",
          "name": "creator",
          "type": "string"
        },
        {
          "internalType": "bytes32",
          "name": "dataHash",
          "type": "bytes32"
        },
        {
          "internalType": "string",
          "name": "metadataURI",
          "type": "string"
        }
      ],
      "name": "anchorRecipe",
      "outputs": [
        {
          "components": [
            {
              "internalType": "uint256",
              "name": "localIndex",
              "type": "uint256"
            },
            {
              "internalType": "string",
              "name": "title",
              "type": "string"
            },
            {
              "internalType": "string",
              "name": "creator",
              "type": "string"
            },
            {
              "internalType": "bytes32",
              "name": "dataHash",
              "type": "bytes32"
            },
            {
              "internalType": "string",
              "name": "metadataURI",
              "type": "string"
            },
            {
              "internalType": "uint256",
              "name": "timestamp",
              "type": "uint256"
            },
            {
              "internalType": "address",
              "name": "submitter",
              "type": "address"
            }
          ],
          "internalType": "struct RecipeRegistry.RecipeRecord",
          "name": "",
          "type": "tuple"
        }
      ],
      "stateMutability": "nonpayable",
      "type": "function"
    },
    {
      "inputs": [
        {
          "internalType": "bytes32",
          "name": "dataHash",
          "type": "bytes32"
        }
      ],
      "name": "getRecipe",
      "outputs": [
        {
          "components": [
            {
              "internalType": "uint256",
              "name": "localIndex",
              "type": "uint256"
            },
            {
              "internalType": "string",
              "name": "title",
              "type": "string"
            },
            {
              "internalType": "string",
              "name": "creator",
              "type": "string"
            },
            {
              "internalType": "bytes32",
              "name": "dataHash",
              "type": "bytes32"
            },
            {
              "internalType": "string",
              "name": "metadataURI",
              "type": "string"
            },
            {
              "internalType": "uint256",
              "name": "timestamp",
              "type": "uint256"
            },
            {
              "internalType": "address",
              "name": "submitter",
              "type": "address"
            }
          ],
          "internalType": "struct RecipeRegistry.RecipeRecord",
          "name": "",
          "type": "tuple"
        }
      ],
      "stateMutability": "view",
      "type": "function"
    },
    {
      "inputs": [],
      "name": "totalAnchored",
      "outputs": [
        {
          "internalType": "uint256",
          "name": "",
          "type": "uint256"
        }
      ],
      "stateMutability": "view",
      "type": "function"
    }
  ],
  "bytecode": "0x608060405234801561001057600080fd5b50610f47806100206000396000f3fe608060405234801561001057600080fd5b50600436106100415760003560e01c80631932528814610046578063a212e36f14610076578063e0181a9c14610094575b600080fd5b610060600480360381019061005b9190610753565b6100c4565b60405161006d91906109c8565b60405180910390f35b61007e610379565b60405161008b91906109f9565b60405180910390f35b6100ae60048036038101906100a99190610a14565b61037f565b6040516100bb91906109c8565b60405180910390f35b6100cc610622565b60008060008681526020019081526020016000206005015414610124576040517f08c379a000000000000000000000000000000000000000000000000000000000815260040161011b90610a9e565b60405180910390fd5b60006040518060e001604052808b81526020018a8a8080601f016020809104026020016040519081016040528093929190818152602001838380828437600081840152601f19601f82011690508083019250505050505050815260200188888080601f016020809104026020016040519081016040528093929190818152602001838380828437600081840152601f19601f82011690508083019250505050505050815260200186815260200185858080601f016020809104026020016040519081016040528093929190818152602001838380828437600081840152601f19601f8201169050808301925050505050505081526020014281526020013373ffffffffffffffffffffffffffffffffffffffff1681525090508060008087815260200190815260200160002060008201518160000155602082015181600101908161026f9190610cf9565b5060408201518160020190816102859190610cf9565b506060820151816003015560808201518160040190816102a59190610cf9565b5060a0820151816005015560c08201518160060160006101000a81548173ffffffffffffffffffffffffffffffffffffffff021916908373ffffffffffffffffffffffffffffffffffffffff160217905550905050600180600082825461030c9190610dfa565b925050819055503373ffffffffffffffffffffffffffffffffffffffff168a867f442603aea4b2fe2884f1f28df60b580c900dee67ac10c0b920ac01d3cf090f1d8c8c8c8c6040516103619493929190610e6a565b60405180910390a48091505098975050505050505050565b60015481565b610387610622565b60008060008481526020019081526020016000206040518060e0016040529081600082015481526020016001820180546103c090610b1c565b80601f01602080910402602001604051908101604052809291908181526020018280546103ec90610b1c565b80156104395780601f1061040e57610100808354040283529160200191610439565b820191906000526020600020905b81548152906001019060200180831161041c57829003601f168201915b5050505050815260200160028201805461045290610b1c565b80601f016020809104026020016040519081016040528092919081815260200182805461047e90610b1c565b80156104cb5780601f106104a0576101008083540402835291602001916104cb565b820191906000526020600020905b8154815290600101906020018083116104ae57829003601f168201915b50505050508152602001600382015481526020016004820180546104ee90610b1c565b80601f016020809104026020016040519081016040528092919081815260200182805461051a90610b1c565b80156105675780601f1061053c57610100808354040283529160200191610567565b820191906000526020600020905b81548152906001019060200180831161054a57829003601f168201915b50505050508152602001600582015481526020016006820160009054906101000a900473ffffffffffffffffffffffffffffffffffffffff1673ffffffffffffffffffffffffffffffffffffffff1673ffffffffffffffffffffffffffffffffffffffff1681525050905060008160a0015103610619576040517f08c379a000000000000000000000000000000000000000000000000000000000815260040161061090610ef1565b60405180910390fd5b80915050919050565b6040518060e00160405280600081526020016060815260200160608152602001600080191681526020016060815260200160008152602001600073ffffffffffffffffffffffffffffffffffffffff1681525090565b600080fd5b600080fd5b6000819050919050565b61069581610682565b81146106a057600080fd5b50565b6000813590506106b28161068c565b92915050565b600080fd5b600080fd5b600080fd5b60008083601f8401126106dd576106dc6106b8565b5b8235905067ffffffffffffffff8111156106fa576106f96106bd565b5b602083019150836001820283011115610716576107156106c2565b5b9250929050565b6000819050919050565b6107308161071d565b811461073b57600080fd5b50565b60008135905061074d81610727565b92915050565b60008060008060008060008060a0898b03121561077357610772610678565b5b60006107818b828c016106a3565b985050602089013567ffffffffffffffff8111156107a2576107a161067d565b5b6107ae8b828c016106c7565b9750975050604089013567ffffffffffffffff8111156107d1576107d061067d565b5b6107dd8b828c016106c7565b955095505060606107f08b828c0161073e565b935050608089013567ffffffffffffffff8111156108115761081061067d565b5b61081d8b828c016106c7565b92509250509295985092959890939650565b61083881610682565b82525050565b600081519050919050565b600082825260208201905092915050565b60005b8381101561087857808201518184015260208101905061085d565b60008484015250505050565b6000601f19601f8301169050919050565b60006108a08261083e565b6108aa8185610849565b93506108ba81856020860161085a565b6108c381610884565b840191505092915050565b6108d78161071d565b82525050565b600073ffffffffffffffffffffffffffffffffffffffff82169050919050565b6000610908826108dd565b9050919050565b610918816108fd565b82525050565b600060e083016000830151610936600086018261082f565b506020830151848203602086015261094e8282610895565b915050604083015184820360408601526109688282610895565b915050606083015161097d60608601826108ce565b50608083015184820360808601526109958282610895565b91505060a08301516109aa60a086018261082f565b5060c08301516109bd60c086018261090f565b508091505092915050565b600060208201905081810360008301526109e2818461091e565b905092915050565b6109f381610682565b82525050565b6000602082019050610a0e60008301846109ea565b92915050565b600060208284031215610a2a57610a29610678565b5b6000610a388482850161073e565b91505092915050565b600082825260208201905092915050565b7f52656369706520616c726561647920616e63686f726564000000000000000000600082015250565b6000610a88601783610a41565b9150610a9382610a52565b602082019050919050565b60006020820190508181036000830152610ab781610a7b565b9050919050565b7f4e487b7100000000000000000000000000000000000000000000000000000000600052604160045260246000fd5b7f4e487b7100000000000000000000000000000000000000000000000000000000600052602260045260246000fd5b60006002820490506001821680610b3457607f821691505b602082108103610b4757610b46610aed565b5b50919050565b60008190508160005260206000209050919050565b60006020601f8301049050919050565b600082821b905092915050565b600060088302610baf7fffffffffffffffffffffffffffffffffffffffffffffffffffffffffffffffff82610b72565b610bb98683610b72565b95508019841693508086168417925050509392505050565b6000819050919050565b6000610bf6610bf1610bec84610682565b610bd1565b610682565b9050919050565b6000819050919050565b610c1083610bdb565b610c24610c1c82610bfd565b848454610b7f565b825550505050565b600090565b610c39610c2c565b610c44818484610c07565b505050565b5b81811015610c6857610c5d600082610c31565b600181019050610c4a565b5050565b601f821115610cad57610c7e81610b4d565b610c8784610b62565b81016020851015610c96578190505b610caa610ca285610b62565b830182610c49565b50505b505050565b600082821c905092915050565b6000610cd060001984600802610cb2565b1980831691505092915050565b6000610ce98383610cbf565b9150826002028217905092915050565b610d028261083e565b67ffffffffffffffff811115610d1b57610d1a610abe565b5b610d258254610b1c565b610d30828285610c6c565b600060209050601f831160018114610d635760008415610d51578287015190505b610d5b8582610cdd565b865550610dc3565b601f198416610d7186610b4d565b60005b82811015610d9957848901518255600182019150602085019450602081019050610d74565b86831015610db65784890151610db2601f891682610cbf565b8355505b6001600288020188555050505b505050505050565b7f4e487b7100000000000000000000000000000000000000000000000000000000600052601160045260246000fd5b6000610e0582610682565b9150610e1083610682565b9250828201905080821115610e2857610e27610dcb565b5b92915050565b82818337600083830152505050565b6000610e498385610a41565b9350610e56838584610e2e565b610e5f83610884565b840190509392505050565b60006040820190508181036000830152610e85818688610e3d565b90508181036020830152610e9a818486610e3d565b905095945050505050565b7f526563697065206e6f7420666f756e6400000000000000000000000000000000600082015250565b6000610edb601083610a41565b9150610ee682610ea5565b602082019050919050565b60006020820190508181036000830152610f0a81610ece565b905091905056fea264697066735822122097e4ed7561842c51ec4b586bd810f1a9c6e4224f04c41631ec1d8a71b42345da64736f6c63430008140033",
  "linkReferences": {},
  "deployedLinkReferences": {}
}